:1000000037C000005CC000005AC0000058C00000AB
:1000100056C0000054C0000052C0000050C0000094
:100020004EC000004CC000004AC0000048C00000A4
:1000300046C0000044C0000042C0000040C00000B4
:1000400091C400003CC00000B7C30000E7C300003B
:1000500036C0000034C0000032C0000030C00000D4
:100060000C94F1082CC00000D8033C041608C50805
:1000700011241FBECFEFD8E0DEBFCDBF11E0A0E05E
:10008000B1E0ECE6F5E102C005900D92A033B107B6
:10009000D9F723E0A0E3B1E001C01D92AA33B20773
:1000A000E1F710E0C0E7D0E004C02297FE010E9413
:1000B000A10AC836D107C9F74BD40C94B40AA0CF13
:1000C000FC0185859685089580E991E00895549A0C
:1000D000089580914201811145C01092340110921F
:1000E00033018FEF8093370180933801809339017A
:1000F00080933A0180933B0180933C0181E080939F
:100100003D0110923F0110923E0110923601109273
:10011000350180916C0290916D02892B31F481E35D
:1001200091E090936D0280936C02E0916A02F091ED
:100130006B02309721F081E391E09583848381E322
:1001400091E090936B0280936A02109241011092A9
:10015000400184E091E0909332018093310181E08D
:100160008093420120E030E04EE150E06FE571E025
:1001700081E391E021C7CF92DF92EF92FF920F933C
:100180001F93CF93DF938FE5C82E81E0D82E8FEF9A
:10019000F601808390E6E92E91E0F92EF7011082B6
:1001A00001E611E0F8011082CEE6D2E06881CE01CE
:1001B00030D664EF71E080E090E04DD4F60110821B
:1001C000F7011082F80110826881CE0122D664EF17
:1001D00071E080E090E0DF91CF911F910F91FF904F
:1001E000EF90DF90CF9037C48F929F92AF92BF92E3
:1001F000CF92DF92EF92FF920F931F93CF93DF93F3
:10020000EC01E881F9819BB190618BB18F7E8BB954
:1002100038852D81D32ED21ADD82AD84AA81BB818F
:100220002B859A848C84EC80FE807F8119850990CF
:10023000D881C02D0981002331F0402F0D2D400FB2
:1002400008F44FEF01C040E0042F029F012D11245C
:10025000C0E04C2F5C2F6C2F002CEA01CC2E4C2DD3
:100260005D2F9BB900C007FF8BB96081442788943C
:1002700000C000C0002C8BB961116E0D00C0002CB5
:100280009BB900C006FF8BB908F46FEF889400C0DB
:1002900000C000C08BB990FC460F00C0002C9BB979
:1002A00000C005FF8BB94795889491FC460F00C0AC
:1002B00000C0002C8BB94795889400C0002C9BB9D6
:1002C00000C004FF8BB992FC460F4795889400C08C
:1002D00000C0002C8BB993FC460F00C0002C9BB9CA
:1002E00000C003FF8BB94795889494FC460F00C06B
:1002F00000C0002C8BB94795889400C0002C9BB996
:1003000000C002FF8BB995FC460F4795889400C04A
:1003100000C0002C8BB996FC460F00C0002C9BB986
:1003200000C001FF8BB94795889497FC460F00C029
:1003300000C0002C8BB94795889400C0002C9BB955
:1003400000C000FF8BB9E194E70E00C000C000C000
:10035000002C8BB9042F00C000C09BB900C007FF60
:100360008BB962814427889400C000C0002C8BB9EF
:1003700061116F0D00C0002C9BB900C006FF8BB946
:1003800008F46FEF889400C000C000C08BB980FCF7
:10039000460F00C0002C9BB900C005FF8BB94795E4
:1003A000889481FC460F00C000C0002C8BB9479593
:1003B000889400C0002C9BB900C004FF8BB982FC5C
:1003C000460F4795889400C000C0002C8BB983FC71
:1003D000460F00C0002C9BB900C003FF8BB94795A6
:1003E000889484FC460F00C000C0002C8BB9479550
:1003F000889400C0002C9BB900C002FF8BB985FC1B
:10040000460F4795889400C000C0002C8BB986FC2D
:10041000460F00C0002C9BB900C001FF8BB9479567
:10042000889487FC460F00C000C0002C8BB947950C
:10043000889400C0002C9BB900C000FF8BB9EA0D66
:10044000F11D8894042F00C000C0002C8BB9F194DA
:10045000F10E00C0002C9BB900C007FF8BB9618171
:100460004427889400C000C0002C8BB961116D0D29
:1004700000C0002C9BB900C006FF8BB908F46FEFD9
:10048000889400C000C000C08BB920FD460F00C09A
:10049000002C9BB900C005FF8BB94795889421FDBE
:1004A000460F00C000C0002C8BB94795889400C04F
:1004B000002C9BB900C004FF8BB922FD460F479565
:1004C000889400C000C0002C8BB923FD460F00C0EB
:1004D000002C9BB900C003FF8BB94795889424FD7D
:1004E000460F00C000C0002C8BB94795889400C00F
:1004F000002C9BB900C002FF8BB925FD460F479524
:10050000889400C000C0002C8BB926FD460F00C0A7
:10051000002C9BB900C001FF8BB94795889427FD3B
:10052000460F00C000C0002C8BB94795889400C0CE
:10053000002C9BB900C000FF8BB9D194D30E042FBF
:1005400000C000C000C08BB9119709F08ACEDF91BE
:10055000CF911F910F91FF90EF90DF90CF90BF90C0
:10056000AF909F908F900895FF920F931F93CF931A
:10057000DF93EC01809130018F5F982F97709093FB
:10058000300180FD02C080E001C080E891FD806400
:10059000947009F0806220E1F22EF80E20E030E045
:1005A00000E011E0FE01E20FF31F6285662329F0EF
:1005B00070E0C8014FD76F5F01C060E067834F2DC7
:1005C000469F412D11244483662311F061506783B7
:1005D0002F5F3F4F2330310529F7DF91CF911F91D6
:1005E0000F91FF900895AF92BF92CF92DF92EF925A
:1005F000FF920F93CF93DF93CDB7DEB72E970FB651
:10060000F894DEBF0FBECDBF6C015A01F901DC01C9
:100610001C968C917A8369835C834B8390819B8742
:1006200091819C8792819D87813021F4CE01019632
:100630009BDF06C01A86198618861F821E821D82BD
:1006400089819A818E0D911D9A838983002319F0E7
:1006500083E08E0D01C080E08E87DAD1F601278518
:100660003089621B730B6A307105B8F3F894CE01C0
:100670000196BADD20EE31E0D5013DD754E09695E4
:100680008795779567955A95D1F720E030E04AE94C
:10069000A49E212DB49E200D311D1124620F731FC5
:1006A000811D911D693EF3E07F0781059105A8F149
:1006B000DC01CB01885E9340A109B10932E0B69517
:1006C000A795979587953A95D1F740E050E027E0B8
:1006D000829F412D929F400D511D11242091B901FF
:1006E00030E0280F391F240F351F80915802909158
:1006F0005902A0915A02B0915B02432F5527840FF3
:10070000951FA11DB11D8093580290935902A0938B
:100710005A02B0935B022093B901789479D1D60143
:1007200050967C936E931F972E960FB6F894DEBF6B
:100730000FBECDBFDF91CF910F91FF90EF90DF9073
:10074000CF90BF90AF900895EF92FF920F93E12C5E
:10075000F12C00E048DF0F91FF90EF900895EF92A9
:10076000FF920F93E12CF12C01E03DDF0F91FF9000
:10077000EF900895EF92FF920F93CF93DF9300D005
:100780001F92CDB7DEB7AB0119821A821B82E12C12
:10079000F12C00E09E012F5F3F4FB90124DF0F9045
:1007A0000F900F90DF91CF910F91FF90EF900895F0
:1007B0006DE18AE491E051C41F920F920FB60F923F
:1007C00011242F938F939F93EF93FF93E091CA018E
:1007D000F091CB018081E091D001F091D10182FDB7
:1007E00012C090818091D3018F5F8F732091D401CB
:1007F000821751F0E091D301F0E0E654FE4F958F5F
:100800008093D30101C08081FF91EF919F918F91DF
:100810002F910F900FBE0F901F9018951F920F925F
:100820000FB60F9211242F933F934F935F936F93C3
:100830007F938F939F93AF93BF93EF93FF938AEB35
:1008400091E0A3D1FF91EF91BF91AF919F918F91D3
:100850007F916F915F914F913F912F910F900FBEBC
:100860000F901F9018958AEB91E055D121E0892BCC
:1008700009F420E0822F08951092BD011092BC016E
:1008800088EE93E0A0E0B0E08093BE019093BF01BA
:10089000A093C001B093C10184E191E09093BB01AA
:1008A0008093BA0185EC90E09093C7018093C601D4
:1008B00084EC90E09093C9018093C80180EC90E0B3
:1008C0009093CB018093CA0181EC90E09093CD018D
:1008D0008093CC0182EC90E09093CF018093CE0185
:1008E00086EC90E09093D1018093D0011092D301D7
:1008F0001092D4011092D5011092D6010895CF9292
:10090000DF92EF92FF920F931F93CF93DF937C01BF
:100910006A01EB0100E010E00C151D0571F0699112
:10092000D701ED91FC910190F081E02DC70109956F
:10093000892B19F00F5F1F4FEFCFC801DF91CF91C7
:100940001F910F91FF90EF90DF90CF900895089541
:10095000A7D0FDDFBEDBC8EBD5E00DDC2097E9F3C7
:1009600007D1FBCF1F920F920FB60F9211242F9336
:100970003F938F939F93AF93BF9380915802909131
:100980005902A0915A02B0915B023091570223E0C4
:10099000230F2D3720F40196A11DB11D05C026E8B7
:1009A000230F0296A11DB11D209357028093580278
:1009B00090935902A0935A02B0935B0280915C021B
:1009C00090915D02A0915E02B0915F020196A11D1F
:1009D000B11D80935C0290935D02A0935E02B09380
:1009E0005F02BF91AF919F918F913F912F910F9097
:1009F0000FBE0F901F9018952FB7F8946091580272
:100A00007091590280915A0290915B022FBF089514
:100A10003FB7F89480915C0290915D02A0915E02D4
:100A2000B0915F0226B5A89B05C02F3F19F0019633
:100A3000A11DB11D3FBF6627782F892F9A2F620F06
:100A4000711D811D911D42E0660F771F881F991F40
:100A50004A95D1F70895CF92DF92EF92FF92CF930C
:100A6000DF936B017C01D4DFEB01C114D104E104FD
:100A7000F10479F030D1CCDF6C1B7D0B683E734004
:100A8000A0F381E0C81AD108E108F108C851DC4F91
:100A9000ECCFDF91CF91FF90EF90DF90CF90089552
:100AA000789484B5826084BD84B5816084BD85B549
:100AB000826085BD85B5816085BDEEE6F0E0808110
:100AC00081608083E1E8F0E0108280818260808331
:100AD000808181608083E0E8F0E0808181608083B4
:100AE000E1EBF0E0808184608083E0EBF0E08081E6
:100AF00081608083EAE7F0E0808184608083808188
:100B0000826080838081816080838081806880832F
:100B10001092C1000895FC01818D228D90E0805CCF
:100B20009F4F821B91098F7399270895FC01918D26
:100B3000828D981731F0828DE80FF11D858D90E040
:100B400008958FEF9FEF0895FC01918D828D981786
:100B500061F0828DDF01A80FB11D5D968C91928DA1
:100B60009F5F9F73928F90E008958FEF9FEF08959E
:100B700083E394E0892B41F080E090E0892B21F021
:100B800072DE81110C9400000895FC01848DDF0158
:100B9000A80FB11DA35ABF4F2C91848D90E00196F0
:100BA0008F739927848FA689B7892C93A089B189DF
:100BB0008C9180648C93938D848D981306C00288E9
:100BC000F389E02D80818F7D80830895CF93DF931B
:100BD000EC01888D8823C1F0EA89FB89808185FD3D
:100BE00005C0A889B9898C9186FD0EC00FB607FC97
:100BF000F5CF808185FFF2CFA889B9898C9185FFD7
:100C0000EDCFCE01C2DFE8CFDF91CF910895CF9233
:100C1000DF92FF920F931F93CF93DF931F92CDB775
:100C2000DEB76C0181E0D60158968C9358975B969D
:100C30009C915B975C968C915C97981307C050963B
:100C4000ED91FC915197808185FD2DC0F601038DBA
:100C500010E00F5F1F4F0F731127F02EF601848DE8
:100C6000F81210C00FB607FCF9CFD6015096ED91DF
:100C7000FC915197808185FFF1CFC601698385DFA3
:100C80006981ECCF838DE80FF11DE35AFF4F60833C
:100C9000D6015B960C935B975296ED91FC9153971E
:100CA000808180620CC0D6015696ED91FC915797D9
:100CB00060835096ED91FC91519780818064808390
:100CC00081E090E00F90DF91CF911F910F91FF9005
:100CD000DF90CF90089508958F929F92AF92BF9228
:100CE000EF92FF920F931F93CF93DF93EC01188243
:100CF00019821A824423A9F1E0E0F0E08B010A5F37
:100D00001F4F7B0189E0E80EF11C842E912CA12C51
:100D1000B12CD801AE0FBF1F2C91D701AE0FBF1F52
:100D20006C912223D1F06623C1F030E040E050E026
:100D30002F5F3F4F4F4F5F4F70E080E090E06F5F5D
:100D40007F4F8F4F9F4F77D39B01AC01C501B401FB
:100D500072D3DE01AE0FBF1F8C933196E330F105E5
:100D6000C1F6CE01DF91CF911F910F91FF90EF90CF
:100D7000BF90AF909F908F900895CF92DF92EF92A7
:100D8000FF92CF93DF93EC01809164029091650212
:100D90009C012F5F3F4F30936502209364028617BA
:100DA000970784F129DE9B01AC01E0916402F09188
:100DB000650288EE93E0E89FB001E99F700DF89F0F
:100DC000700D1124882777FD8095982FC0906002C0
:100DD000D0906102E0906202F09063022C193D090C
:100DE0004E095F094AD33A83298310926502109213
:100DF000640202DE6093600270936102809362027B
:100E000090936302DF91CF91FF90EF90DF90CF90AE
:100E100008958F929F92AF92BF92EF92FF920F939D
:100E20001F93CF93DF9300D01F92CDB7DEB78C0115
:100E3000F62EF80183819481A581B681892B8A2BB6
:100E40008B2BC9F0E5DD8090660290906702A09040
:100E50006802B0906902681979098A099B09D8016A
:100E600013968D909D90AD90BC901697681579055E
:100E70008A059B05F0F2CCDD6093660270936702F1
:100E80008093680290936902D8011B96ED91FC91C2
:100E90001C97309751F0D80117964D915D916D9147
:100EA0007C911A978F2D0995F82EA0906C02B09026
:100EB0006D02A114B10449F1F501E484D801119641
:100EC0008D919C9112978436910508F41486D50172
:100ED000ED91FC91828093804F2DB501CE0101965A
:100EE000FBDEF50145855685628173819E012F5F8A
:100EF0003F4FC501F4010995D5011C96EC921C9752
:100F00001496AD90BC901597D4CF69E170E0C801FC
:100F100034DF0F900F900F90DF91CF911F910F91C1
:100F2000FF90EF90BF90AF909F908F900895CF92D9
:100F3000DF92EF92FF920F931F93CF93DF93EC0119
:100F40004423E9F06115710571F19B0140E050E027
:100F500060E472E48FE090E0B2D2CB80DC80ED8080
:100F6000FE8089019A010C151D052E053F0510F420
:100F7000970186010B831C832D833E8314C061156A
:100F8000710569F09B0140E050E060E472E48FE09D
:100F900090E095D22B833C834D835E8304C01B82FB
:100FA0001C821D821E82DF91CF911F910F91FF90B5
:100FB000EF90DF90CF900895CF92DF92EF92FF9263
:100FC0000F931F93CF93DF93EC016B018A0179019B
:100FD000121613061CF07A0100E010E0E881F98196
:100FE0000480F581E02DCE010995C801880F991F75
:100FF000800F911F8C0D9D1D9B838A83FE86ED863D
:10100000E881F9810284F385E02DCE01099541E064
:10101000BC018EE692E08BDFCE01DF91CF911F9174
:101020000F91FF90EF90DF90CF9008958FEF809316
:101030006E021092700210926F0210927A02109259
:1010400079028FEF9FEFDC01809375029093760217
:10105000A0937702B09378020895FC01628B089503
:101060008091AA0290E02091AB02821B9109089521
:101070002091AB028091AA02281750F4E22FF0E0F1
:10108000E455FD4F808190E02F5F2093AB020895DF
:101090008FEF9FEF0895E091AB028091AA02E817CD
:1010A00030F4F0E0E455FD4F808190E008958FEF3B
:1010B0009FEF08950895CF92DF92EF92FF920F93E2
:1010C0001F93CF93DF937C01CB018A01209187028C
:1010D000222389F0EB016B01C40ED51ECC15DD0572
:1010E00061F06991D701ED91FC910190F081E02DC3
:1010F000C7010995F3CF642F4BD0C801DF91CF9181
:101100001F910F91FF90EF90DF90CF900895CF93B4
:10111000DF931F92CDB7DEB7698320918702222328
:10112000D1F020918802203240F021E030E0FC0133
:101130003383228380E090E014C080918902E82FFD
:10114000F0E0E657FD4F998190838F5F809389028D
:101150008093880204C061E0CE01019619D081E03D
:1011600090E00F90DF91CF910895FC0113821282DD
:1011700048EE53E060E070E04483558366837783F4
:1011800084E291E09183808308958BE792E0EDCF34
:10119000613298F420913903243089F46093EE028F
:1011A000FC0180EF92E0DC012A2F281B261718F49F
:1011B00021912D93F9CF80E0089581E0089582E098
:1011C000089585ED8093BC008091BC0084FDFCCF28
:1011D00010923903089585EC8093BC001092390376
:1011E00008951F920F920FB60F9211242F933F93E1
:1011F0004F935F936F937F938F939F93AF93BF931F
:10120000EF93FF938091B900887F803609F49DC0E9
:1012100070F5883209F45CC090F4803109F455C04F
:1012200038F4882309F4F3C0883009F44EC0F2C0C2
:10123000883109F44DC0803209F45EC0EBC08034BF
:1012400009F469C050F4803309F456C0883309F0BA
:10125000E1C08093CC02BFDFDDC0803509F44FC010
:10126000883509F45DC0883409F0D4C0D2C088390B
:1012700009F4C3C0A8F4883709F467C038F4883685
:1012800009F463C0803709F460C0C4C0883809F429
:10129000B4C0803909F45FC0803809F0BBC05BC0BE
:1012A000803B09F482C038F4803A09F466C0883A79
:1012B00009F47BC0AFC0803C09F4A3C0883C09F4AA
:1012C000A0C0883B09F486C0A5C08091380310C037
:1012D0009091110380911003981770F5E09111031C
:1012E00081E08E0F80931103F0E0EE5EFC4F808171
:1012F0008093BB0085EC82C08093CC028AC0E091D1
:10130000110381E08E0F809311038091BB00F0E008
:10131000EE5EFC4F808390911103809110036AC0B0
:10132000E091110381E08E0F809311038091BB0047
:10133000F0E0EE5EFC4F808380913703811169C03D
:1013400081E08093360384EA5DC083E080933903B3
:101350001092CD02CFCF8091CD02803208F04DC0E7
:10136000E091CD0281E08E0F8093CD028091BB0091
:10137000F0E0E253FD4F8083BDCF2DDF8091CD02A1
:10138000803230F4E091CD02F0E0E253FD4F108264
:101390006091CD0270E0E0913203F09133038EEC66
:1013A00092E009951092CD0235C084E08093390314
:1013B0001092EF021092EE02E0913403F0913503A7
:1013C00009958091EE02811105C081E08093EE02C3
:1013D0001092F002E091EF0281E08E0F8093EF0215
:1013E000F0E0E051FD4F80818093BB009091EF02CF
:1013F0008091EE02981708F47DCF85E88093BC00B9
:1014000009C085EC8093BC001092390303C0109290
:10141000CC02D7DEFF91EF91BF91AF919F918F9159
:101420007F916F915F914F913F912F910F900FBEE0
:101430000F901F901895DB018F939F9362D0BF91FF
:10144000AF91A29F800D911DA39F900DB29F900D13
:101450001124089597FB072E16F4009406D077FD0B
:1014600008D059D007FC05D03EF4909581959F4F48
:101470000895709561957F4F0895A1E21A2EAA1BD9
:10148000BB1BFD010DC0AA1FBB1FEE1FFF1FA21734
:10149000B307E407F50720F0A21BB30BE40BF50B31
:1014A000661F771F881F991F1A9469F760957095BA
:1014B000809590959B01AC01BD01CF010895052E4B
:1014C00097FB16F400940FD057FD05D0D6DF07FC2C
:1014D00002D046F408C050954095309521953F4F75
:1014E0004F4F5F4F089590958095709561957F4F10
:1014F0008F4F9F4F089529D0B7FF0895821B930BFC
:10150000089523D0A59F900DB49F900DA49F800DAA
:10151000911D11240895AA1BBB1B51E107C0AA1FEE
:10152000BB1FA617B70710F0A61BB70B881F991F84
:101530005A95A9F780959095BC01CD010895EE0FBD
:10154000FF1F0590F491E02D0994A29FB001B39F75
:10155000C001A39F700D811D1124911DB29F700DBC
:0C156000811D1124911D0895F894FFCF07
:10156C0000000000A403AF036700BA03600064002E
:10157C000000000007067F048B05A4059605E60510
:10158C000000000087085B08300838084B085A0830
:00000001FF
